{
  "abi": [
    {
      "inputs": [
        {
          "internalType": "uint256",
          "name": "val",
          "type": "uint256"
        }
      ],
      "name": "addAssignCustomSlot",
      "outputs": [
        {
          "internalType": "uint256",
          "name": "stored",
          "type": "uint256"
        }
      ],
      "stateMutability": "nonpayable",
      "type": "function"
    },
    {
      "inputs": [
        {
          "internalType": "uint256",
          "name": "val",
          "type": "uint256"
        }
      ],
      "name": "addAssignPrimitive",
      "outputs": [
        {
          "internalType": "uint256",
          "name": "stored",
          "type": "uint256"
        }
      ],
      "stateMutability": "nonpayable",
      "type": "function"
    },
    {
      "inputs": [
        {
          "internalType": "uint256",
          "name": "val",
          "type": "uint256"
        }
      ],
      "name": "addCustomSlot",
      "outputs": [
        {
          "internalType": "uint256",
          "name": "res",
          "type": "uint256"
        }
      ],
      "stateMutability": "view",
      "type": "function"
    },
    {
      "inputs": [
        {
          "internalType": "uint256",
          "name": "val",
          "type": "uint256"
        }
      ],
      "name": "addPrimitive",
      "outputs": [
        {
          "internalType": "uint256",
          "name": "res",
          "type": "uint256"
        }
      ],
      "stateMutability": "view",
      "type": "function"
    },
    {
      "inputs": [
        {
          "internalType": "uint256",
          "name": "val",
          "type": "uint256"
        }
      ],
      "name": "divCustomSlot",
      "outputs": [
        {
          "internalType": "uint256",
          "name": "res",
          "type": "uint256"
        }
      ],
      "stateMutability": "view",
      "type": "function"
    },
    {
      "inputs": [
        {
          "internalType": "uint256",
          "name": "val",
          "type": "uint256"
        }
      ],
      "name": "divPrimitive",
      "outputs": [
        {
          "internalType": "uint256",
          "name": "res",
          "type": "uint256"
        }
      ],
      "stateMutability": "view",
      "type": "function"
    },
    {
      "inputs": [],
      "name": "getCustomSlot",
      "outputs": [
        {
          "internalType": "uint256",
          "name": "",
          "type": "uint256"
        }
      ],
      "stateMutability": "view",
      "type": "function"
    },
    {
      "inputs": [],
      "name": "getPrimitive",
      "outputs": [
        {
          "internalType": "uint256",
          "name": "",
          "type": "uint256"
        }
      ],
      "stateMutability": "view",
      "type": "function"
    },
    {
      "inputs": [
        {
          "internalType": "uint256",
          "name": "val",
          "type": "uint256"
        }
      ],
      "name": "mulCustomSlot",
      "outputs": [
        {
          "internalType": "uint256",
          "name": "res",
          "type": "uint256"
        }
      ],
      "stateMutability": "view",
      "type": "function"
    },
    {
      "inputs": [
        {
          "internalType": "uint256",
          "name": "val",
          "type": "uint256"
        }
      ],
      "name": "mulPrimitive",
      "outputs": [
        {
          "internalType": "uint256",
          "name": "res",
          "type": "uint256"
        }
      ],
      "stateMutability": "view",
      "type": "function"
    },
    {
      "inputs": [],
      "name": "postDecrementCustomSlot",
      "outputs": [
        {
          "internalType": "uint256",
          "name": "res",
          "type": "uint256"
        }
      ],
      "stateMutability": "nonpayable",
      "type": "function"
    },
    {
      "inputs": [],
      "name": "postDecrementPrimitive",
      "outputs": [
        {
          "internalType": "uint256",
          "name": "res",
          "type": "uint256"
        }
      ],
      "stateMutability": "nonpayable",
      "type": "function"
    },
    {
      "inputs": [],
      "name": "postIncrementCustomSlot",
      "outputs": [
        {
          "internalType": "uint256",
          "name": "res",
          "type": "uint256"
        }
      ],
      "stateMutability": "nonpayable",
      "type": "function"
    },
    {
      "inputs": [],
      "name": "postIncrementPrimitive",
      "outputs": [
        {
          "internalType": "uint256",
          "name": "res",
          "type": "uint256"
        }
      ],
      "stateMutability": "nonpayable",
      "type": "function"
    },
    {
      "inputs": [],
      "name": "preDecrementCustomSlot",
      "outputs": [
        {
          "internalType": "uint256",
          "name": "res",
          "type": "uint256"
        }
      ],
      "stateMutability": "nonpayable",
      "type": "function"
    },
    {
      "inputs": [],
      "name": "preDecrementPrimitive",
      "outputs": [
        {
          "internalType": "uint256",
          "name": "res",
          "type": "uint256"
        }
      ],
      "stateMutability": "nonpayable",
      "type": "function"
    },
    {
      "inputs": [],
      "name": "preIncrementCustomSlot",
      "outputs": [
        {
          "internalType": "uint256",
          "name": "res",
          "type": "uint256"
        }
      ],
      "stateMutability": "nonpayable",
      "type": "function"
    },
    {
      "inputs": [],
      "name": "preIncrementPrimitive",
      "outputs": [
        {
          "internalType": "uint256",
          "name": "res",
          "type": "uint256"
        }
      ],
      "stateMutability": "nonpayable",
      "type": "function"
    },
    {
      "inputs": [
        {
          "internalType": "uint256",
          "name": "val",
          "type": "uint256"
        }
      ],
      "name": "setCustomSlot",
      "outputs": [
        {
          "internalType": "uint256",
          "name": "stored",
          "type": "uint256"
        }
      ],
      "stateMutability": "nonpayable",
      "type": "function"
    },
    {
      "inputs": [
        {
          "internalType": "uint256",
          "name": "val",
          "type": "uint256"
        }
      ],
      "name": "setPrimitive",
      "outputs": [
        {
          "internalType": "uint256",
          "name": "stored",
          "type": "uint256"
        }
      ],
      "stateMutability": "nonpayable",
      "type": "function"
    },
    {
      "inputs": [
        {
          "internalType": "uint256",
          "name": "val",
          "type": "uint256"
        }
      ],
      "name": "subAssignCustomSlot",
      "outputs": [
        {
          "internalType": "uint256",
          "name": "stored",
          "type": "uint256"
        }
      ],
      "stateMutability": "nonpayable",
      "type": "function"
    },
    {
      "inputs": [
        {
          "internalType": "uint256",
          "name": "val",
          "type": "uint256"
        }
      ],
      "name": "subAssignPrimitive",
      "outputs": [
        {
          "internalType": "uint256",
          "name": "stored",
          "type": "uint256"
        }
      ],
      "stateMutability": "nonpayable",
      "type": "function"
    },
    {
      "inputs": [
        {
          "internalType": "uint256",
          "name": "val",
          "type": "uint256"
        }
      ],
      "name": "subCustomSlot",
      "outputs": [
        {
          "internalType": "uint256",
          "name": "res",
          "type": "uint256"
        }
      ],
      "stateMutability": "view",
      "type": "function"
    },
    {
      "inputs": [
        {
          "internalType": "uint256",
          "name": "val",
          "type": "uint256"
        }
      ],
      "name": "subPrimitive",
      "outputs": [
        {
          "internalType": "uint256",
          "name": "res",
          "type": "uint256"
        }
      ],
      "stateMutability": "view",
      "type": "function"
    }
  ],
  "bytecode": {
    "object": "0x608060405234801561001057600080fd5b50610c1f806100206000396000f3fe608060405234801561001057600080fd5b50600436106101985760003560e01c806360211188116100e3578063d083620e1161008c578063e1c42e5f11610066578063e1c42e5f146102e9578063ed6d8d3a146102f1578063ee63467a1461030457600080fd5b8063d083620e146102b8578063d78ad127146102cb578063e0ae7954146102d357600080fd5b8063a0fae9ac116100bd578063a0fae9ac1461027f578063c8dd6ad514610292578063c8f054ca146102a557600080fd5b8063602111881461025157806375c054ed1461026457806376824deb1461027757600080fd5b80632e79041c116101455780634889d66f1161011f5780634889d66f146102235780634902b1631461022b57806357b1d5fa1461023e57600080fd5b80632e79041c1461020057806338ac8c4614610213578063393b11be1461021b57600080fd5b80631633b189116101765780631633b189146101dd5780631b224829146101f05780632d2ca5bb146101f857600080fd5b806304d806b41461019d57806306bed1ff146101b757806311710ee4146101ca575b600080fd5b6101a561030c565b60405190815260200160405180910390f35b6101a56101c5366004610a50565b610324565b6101a56101d8366004610a50565b61039a565b6101a56101eb366004610a50565b6103b9565b6101a561048c565b6101a56104f7565b6101a561020e366004610a50565b61055d565b6101a56105cd565b6101a56105e7565b6101a56105f7565b6101a5610239366004610a50565b61065d565b6101a561024c366004610a50565b61066d565b6101a561025f366004610a50565b6106dd565b6101a5610272366004610a50565b61074d565b6101a561075d565b6101a561028d366004610a50565b6107a8565b6101a56102a0366004610a50565b6107b8565b6101a56102b3366004610a50565b610828565b6101a56102c6366004610a50565b610838565b6101a56108a8565b6101a56102e1366004610a50565b600081905590565b6101a56108b7565b6101a56102ff366004610a50565b61091d565b6000546101a5565b60008054818061031b83610a98565b91905055905090565b6000610394826040518060400160405260108152806020017f4d6f636b5455696e74323536536c6f74000000000000000000000000000000008152506040516020016103709190610ad0565b6040516020818303038152906040528051906020012061093090919063ffffffff16565b92915050565b6000816000808282546103ad9190610b3c565b91829055509392505050565b6000610429826040518060400160405260108152806020017f4d6f636b5455696e74323536536c6f74000000000000000000000000000000008152506040516020016104059190610ad0565b6040516020818303038152906040528051906020012061096290919063ffffffff16565b6103946040518060400160405260108152806020017f4d6f636b5455696e74323536536c6f74000000000000000000000000000000008152506040516020016104729190610ad0565b604051602081830303815290604052805190602001205490565b60006104f26040518060400160405260108152806020017f4d6f636b5455696e74323536536c6f74000000000000000000000000000000008152506040516020016104d79190610ad0565b60405160208183030381529060405280519060200120610966565b905090565b60006104f26040518060400160405260108152806020017f4d6f636b5455696e74323536536c6f74000000000000000000000000000000008152506040516020016105429190610ad0565b60405160208183030381529060405280519060200120610973565b6000610394826040518060400160405260108152806020017f4d6f636b5455696e74323536536c6f74000000000000000000000000000000008152506040516020016105a99190610ad0565b6040516020818303038152906040528051906020012061099390919063ffffffff16565b600080600081546105dd90610a98565b9182905550919050565b600080600081546105dd90610b4f565b60006104f26040518060400160405260108152806020017f4d6f636b5455696e74323536536c6f74000000000000000000000000000000008152506040516020016106429190610ad0565b604051602081830303815290604052805190602001206109b9565b6000816000546103949190610b3c565b6000610394826040518060400160405260108152806020017f4d6f636b5455696e74323536536c6f74000000000000000000000000000000008152506040516020016106b99190610ad0565b604051602081830303815290604052805190602001206109d490919063ffffffff16565b6000610394826040518060400160405260108152806020017f4d6f636b5455696e74323536536c6f74000000000000000000000000000000008152506040516020016107299190610ad0565b604051602081830303815290604052805190602001206109f390919063ffffffff16565b6000816000546103949190610b84565b60006104f26040518060400160405260108152806020017f4d6f636b5455696e74323536536c6f74000000000000000000000000000000008152506040516020016104729190610ad0565b6000816000546103949190610bbf565b6000610394826040518060400160405260108152806020017f4d6f636b5455696e74323536536c6f74000000000000000000000000000000008152506040516020016108049190610ad0565b60405160208183030381529060405280519060200120610a1c90919063ffffffff16565b6000816000546103949190610bd6565b6000610394826040518060400160405260108152806020017f4d6f636b5455696e74323536536c6f74000000000000000000000000000000008152506040516020016108849190610ad0565b60405160208183030381529060405280519060200120610a3390919063ffffffff16565b60008054818061031b83610b4f565b60006104f26040518060400160405260108152806020017f4d6f636b5455696e74323536536c6f74000000000000000000000000000000008152506040516020016109029190610ad0565b60405160208183030381529060405280519060200120610a43565b6000816000808282546103ad9190610bd6565b60008254801561095b578281029150808204831461095b57634e487b7160005260116020526024601cfd5b5092915050565b9055565b6000610394826001610a1c565b600061097d825490565b905061098e82610962600184610b3c565b919050565b60008254826109af57634e487b7160005260126020526024601cfd5b9190910492915050565b60006109c3825490565b905061098e82610962836001610bd6565b815481018181101561039457634e487b7160005260116020526024601cfd5b6000825482811015610a1257634e487b7160005260116020526024601cfd5b9190910392915050565b600061039483610a2c85856109f3565b9250829055565b600061039483610a2c85856109d4565b6000610394826001610a33565b600060208284031215610a6257600080fd5b5035919050565b7f4e487b7100000000000000000000000000000000000000000000000000000000600052601160045260246000fd5b60007fffffffffffffffffffffffffffffffffffffffffffffffffffffffffffffffff8203610ac957610ac9610a69565b5060010190565b600060208083528351808285015260005b81811015610afd57858101830151858201604001528201610ae1565b5060006040828601015260407fffffffffffffffffffffffffffffffffffffffffffffffffffffffffffffffe0601f8301168501019250505092915050565b8181038181111561039457610394610a69565b600081610b5e57610b5e610a69565b507fffffffffffffffffffffffffffffffffffffffffffffffffffffffffffffffff0190565b600082610bba577f4e487b7100000000000000000000000000000000000000000000000000000000600052601260045260246000fd5b500490565b808202811582820484141761039457610394610a69565b8082018082111561039457610394610a6956fea2646970667358221220cc088bbd158996c7b966e7dabe52ccdf6fad441b619c4ad24d1abd8dde51e16a64736f6c63430008150033",
    "linkReferences": {}
  },
  "methodIdentifiers": {
    "addAssignCustomSlot(uint256)": "d083620e",
    "addAssignPrimitive(uint256)": "ed6d8d3a",
    "addCustomSlot(uint256)": "57b1d5fa",
    "addPrimitive(uint256)": "c8f054ca",
    "divCustomSlot(uint256)": "2e79041c",
    "divPrimitive(uint256)": "75c054ed",
    "getCustomSlot()": "76824deb",
    "getPrimitive()": "ee63467a",
    "mulCustomSlot(uint256)": "06bed1ff",
    "mulPrimitive(uint256)": "a0fae9ac",
    "postDecrementCustomSlot()": "2d2ca5bb",
    "postDecrementPrimitive()": "d78ad127",
    "postIncrementCustomSlot()": "4889d66f",
    "postIncrementPrimitive()": "04d806b4",
    "preDecrementCustomSlot()": "1b224829",
    "preDecrementPrimitive()": "393b11be",
    "preIncrementCustomSlot()": "e1c42e5f",
    "preIncrementPrimitive()": "38ac8c46",
    "setCustomSlot(uint256)": "1633b189",
    "setPrimitive(uint256)": "e0ae7954",
    "subAssignCustomSlot(uint256)": "c8dd6ad5",
    "subAssignPrimitive(uint256)": "11710ee4",
    "subCustomSlot(uint256)": "60211188",
    "subPrimitive(uint256)": "4902b163"
  },
  "storageLayout": {
    "storage": [
      {
        "astId": 2119,
        "contract": "contracts/mocks/types/MockTUint256Slot.sol:MockTUint256Slot",
        "label": "_primitiveUint256",
        "offset": 0,
        "slot": "0",
        "type": "t_uint256"
      }
    ],
    "types": {
      "t_uint256": {
        "encoding": "inplace",
        "label": "uint256",
        "numberOfBytes": "32"
      }
    }
  },
  "userdoc": {
    "version": 1,
    "kind": "user"
  },
  "devdoc": {
    "version": 1,
    "kind": "dev"
  },
  "id": 9
}